:100000000C942A000C943F000C943F000C943F0089
:100010000C943F000C943F000C943F000C943F0064
:100020000C943F000C943F000C943F000C943F0054
:100030000C943F000C943F000C943F000C943F0044
:100040000C943F000C943F000C943F000C943F0034
:100050000C943F0011241FBECFE5D8E0DEBFCDBF1A
:1000600010E0A0E6B0E0E6EEF0E002C005900D92F0
:10007000AE36B107D9F70E9462000C9471000C945F
:100080000000539A80B5866880BD80916D0089B963
:1000900008955D9BFECF8CB95E9BFECF08951F93A4
:1000A000CF93DF93EC0110E003C00E9449001F5F73
:1000B000FE01E10FF11D80818823B9F7DF91CF9117
:1000C0001F910895539A80B5866880BD80916D0018
:1000D00089B980E690E00E944F0080E20E944900CA
:0600E000F8CFF894FFCFF9
:0E00E60048656C6C6F20576F726C642100339C
:00000001FF
